{
  "_format": "hh-sol-artifact-1",
  "contractName": "BusinessRegistry",
  "sourceName": "contracts/BusinessRegistry.sol",
  "abi": [
    {
      "inputs": [],
      "stateMutability": "nonpayable",
      "type": "constructor"
    },
    {
      "anonymous": false,
      "inputs": [
        {
          "indexed": true,
          "internalType": "uint256",
          "name": "businessId",
          "type": "uint256"
        },
        {
          "indexed": true,
          "internalType": "address",
          "name": "reviewer",
          "type": "address"
        }
      ],
      "name": "BusinessApproved",
      "type": "event"
    },
    {
      "anonymous": false,
      "inputs": [
        {
          "indexed": true,
          "internalType": "uint256",
          "name": "businessId",
          "type": "uint256"
        },
        {
          "indexed": true,
          "internalType": "address",
          "name": "reviewer",
          "type": "address"
        }
      ],
      "name": "BusinessRejected",
      "type": "event"
    },
    {
      "anonymous": false,
      "inputs": [
        {
          "indexed": true,
          "internalType": "uint256",
          "name": "businessId",
          "type": "uint256"
        },
        {
          "indexed": true,
          "internalType": "address",
          "name": "owner",
          "type": "address"
        },
        {
          "indexed": false,
          "internalType": "string",
          "name": "name",
          "type": "string"
        }
      ],
      "name": "BusinessSubmitted",
      "type": "event"
    },
    {
      "inputs": [
        {
          "internalType": "address",
          "name": "reviewer",
          "type": "address"
        }
      ],
      "name": "addReviewer",
      "outputs": [],
      "stateMutability": "nonpayable",
      "type": "function"
    },
    {
      "inputs": [],
      "name": "admin",
      "outputs": [
        {
          "internalType": "address",
          "name": "",
          "type": "address"
        }
      ],
      "stateMutability": "view",
      "type": "function"
    },
    {
      "inputs": [
        {
          "internalType": "string",
          "name": "",
          "type": "string"
        }
      ],
      "name": "allowedRegions",
      "outputs": [
        {
          "internalType": "bool",
          "name": "",
          "type": "bool"
        }
      ],
      "stateMutability": "view",
      "type": "function"
    },
    {
      "inputs": [
        {
          "internalType": "uint256",
          "name": "businessId",
          "type": "uint256"
        }
      ],
      "name": "approveBusiness",
      "outputs": [],
      "stateMutability": "nonpayable",
      "type": "function"
    },
    {
      "inputs": [],
      "name": "businessCount",
      "outputs": [
        {
          "internalType": "uint256",
          "name": "",
          "type": "uint256"
        }
      ],
      "stateMutability": "view",
      "type": "function"
    },
    {
      "inputs": [
        {
          "internalType": "uint256",
          "name": "",
          "type": "uint256"
        }
      ],
      "name": "businesses",
      "outputs": [
        {
          "internalType": "string",
          "name": "name",
          "type": "string"
        },
        {
          "internalType": "string",
          "name": "category",
          "type": "string"
        },
        {
          "internalType": "string",
          "name": "region",
          "type": "string"
        },
        {
          "internalType": "string",
          "name": "description",
          "type": "string"
        },
        {
          "internalType": "address",
          "name": "owner",
          "type": "address"
        },
        {
          "internalType": "enum BusinessRegistry.Status",
          "name": "status",
          "type": "uint8"
        }
      ],
      "stateMutability": "view",
      "type": "function"
    },
    {
      "inputs": [
        {
          "internalType": "uint256",
          "name": "businessId",
          "type": "uint256"
        }
      ],
      "name": "getBusiness",
      "outputs": [
        {
          "internalType": "string",
          "name": "",
          "type": "string"
        },
        {
          "internalType": "string",
          "name": "",
          "type": "string"
        },
        {
          "internalType": "string",
          "name": "",
          "type": "string"
        },
        {
          "internalType": "string",
          "name": "",
          "type": "string"
        },
        {
          "internalType": "address",
          "name": "",
          "type": "address"
        },
        {
          "internalType": "enum BusinessRegistry.Status",
          "name": "",
          "type": "uint8"
        }
      ],
      "stateMutability": "view",
      "type": "function"
    },
    {
      "inputs": [
        {
          "internalType": "address",
          "name": "user",
          "type": "address"
        }
      ],
      "name": "isReviewer",
      "outputs": [
        {
          "internalType": "bool",
          "name": "",
          "type": "bool"
        }
      ],
      "stateMutability": "view",
      "type": "function"
    },
    {
      "inputs": [
        {
          "internalType": "uint256",
          "name": "businessId",
          "type": "uint256"
        }
      ],
      "name": "rejectBusiness",
      "outputs": [],
      "stateMutability": "nonpayable",
      "type": "function"
    },
    {
      "inputs": [
        {
          "internalType": "address",
          "name": "reviewer",
          "type": "address"
        }
      ],
      "name": "removeReviewer",
      "outputs": [],
      "stateMutability": "nonpayable",
      "type": "function"
    },
    {
      "inputs": [
        {
          "internalType": "address",
          "name": "",
          "type": "address"
        }
      ],
      "name": "reviewers",
      "outputs": [
        {
          "internalType": "bool",
          "name": "",
          "type": "bool"
        }
      ],
      "stateMutability": "view",
      "type": "function"
    },
    {
      "inputs": [
        {
          "internalType": "string",
          "name": "region",
          "type": "string"
        },
        {
          "internalType": "bool",
          "name": "allowed",
          "type": "bool"
        }
      ],
      "name": "setAllowedRegion",
      "outputs": [],
      "stateMutability": "nonpayable",
      "type": "function"
    },
    {
      "inputs": [
        {
          "internalType": "string",
          "name": "name",
          "type": "string"
        },
        {
          "internalType": "string",
          "name": "category",
          "type": "string"
        },
        {
          "internalType": "string",
          "name": "region",
          "type": "string"
        },
        {
          "internalType": "string",
          "name": "description",
          "type": "string"
        }
      ],
      "name": "submitBusiness",
      "outputs": [],
      "stateMutability": "nonpayable",
      "type": "function"
    }
  ],
  "bytecode": "0x608060405234801561001057600080fd5b50336000806101000a81548173ffffffffffffffffffffffffffffffffffffffff021916908373ffffffffffffffffffffffffffffffffffffffff1602179055506001600460003373ffffffffffffffffffffffffffffffffffffffff1673ffffffffffffffffffffffffffffffffffffffff16815260200190815260200160002060006101000a81548160ff021916908315150217905550600160036040516100b99061020e565b908152602001604051809103902060006101000a81548160ff021916908315150217905550600160036040516100ee9061026f565b908152602001604051809103902060006101000a81548160ff02191690831515021790555060016003604051610123906102d0565b908152602001604051809103902060006101000a81548160ff0219169083151502179055506001600360405161015890610331565b908152602001604051809103902060006101000a81548160ff0219169083151502179055506001600360405161018d90610392565b908152602001604051809103902060006101000a81548160ff0219169083151502179055506103a7565b600081905092915050565b7f4b6967616c690000000000000000000000000000000000000000000000000000600082015250565b60006101f86006836101b7565b9150610203826101c2565b600682019050919050565b6000610219826101eb565b9150819050919050565b7f4e6f72746865726e000000000000000000000000000000000000000000000000600082015250565b60006102596008836101b7565b915061026482610223565b600882019050919050565b600061027a8261024c565b9150819050919050565b7f536f75746865726e000000000000000000000000000000000000000000000000600082015250565b60006102ba6008836101b7565b91506102c582610284565b600882019050919050565b60006102db826102ad565b9150819050919050565b7f5765737465726e00000000000000000000000000000000000000000000000000600082015250565b600061031b6007836101b7565b9150610326826102e5565b600782019050919050565b600061033c8261030e565b9150819050919050565b7f4561737465726e00000000000000000000000000000000000000000000000000600082015250565b600061037c6007836101b7565b915061038782610346565b600782019050919050565b600061039d8261036f565b9150819050919050565b611df1806103b66000396000f3fe608060405234801561001057600080fd5b50600436106100cf5760003560e01c8063aeeea4e51161008c578063da2aff2a11610066578063da2aff2a14610216578063f7cbb1b214610234578063f851a44014610264578063fdc6258a14610282576100cf565b8063aeeea4e5146101a9578063b984c6ec146101c5578063c9442dac146101fa576100cf565b806306da0a88146100d45780632bd34e52146100f05780634b3c5e811461010c5780634d7439cb1461013c5780636bcd8ea81461017157806373a82b5f1461018d575b600080fd5b6100ee60048036038101906100e99190611232565b6102b2565b005b61010a60048036038101906101059190611232565b610488565b005b610126600480360381019061012191906113a5565b61065c565b6040516101339190611409565b60405180910390f35b61015660048036038101906101519190611232565b610692565b6040516101689695949392919061155b565b60405180910390f35b61018b600480360381019061018691906115d8565b610a0e565b005b6101a760048036038101906101a291906116db565b610c25565b005b6101c360048036038101906101be9190611734565b610d0e565b005b6101df60048036038101906101da9190611232565b610dd6565b6040516101f19695949392919061155b565b60405180910390f35b610214600480360381019061020f91906116db565b61105f565b005b61021e611148565b60405161022b919061179f565b60405180910390f35b61024e600480360381019061024991906116db565b61114e565b60405161025b9190611409565b60405180910390f35b61026c61116e565b60405161027991906117ba565b60405180910390f35b61029c600480360381019061029791906116db565b611192565b6040516102a99190611409565b60405180910390f35b60008054906101000a900473ffffffffffffffffffffffffffffffffffffffff1673ffffffffffffffffffffffffffffffffffffffff163373ffffffffffffffffffffffffffffffffffffffff1614610340576040517f08c379a000000000000000000000000000000000000000000000000000000000815260040161033790611821565b60405180910390fd5b6001548110610384576040517f08c379a000000000000000000000000000000000000000000000000000000000815260040161037b9061188d565b60405180910390fd5b6000600260008381526020019081526020016000209050600060028111156103af576103ae6114e4565b5b8160040160149054906101000a900460ff1660028111156103d3576103d26114e4565b5b14610413576040517f08c379a000000000000000000000000000000000000000000000000000000000815260040161040a906118f9565b60405180910390fd5b60018160040160146101000a81548160ff0219169083600281111561043b5761043a6114e4565b5b02179055503373ffffffffffffffffffffffffffffffffffffffff16827f69073f75431f3794b397d6efd16ef9caea7c768a21794a84265df800cbd7febe60405160405180910390a35050565b600460003373ffffffffffffffffffffffffffffffffffffffff1673ffffffffffffffffffffffffffffffffffffffff16815260200190815260200160002060009054906101000a900460ff16610514576040517f08c379a000000000000000000000000000000000000000000000000000000000815260040161050b90611965565b60405180910390fd5b6001548110610558576040517f08c379a000000000000000000000000000000000000000000000000000000000815260040161054f9061188d565b60405180910390fd5b600060026000838152602001908152602001600020905060006002811115610583576105826114e4565b5b8160040160149054906101000a900460ff1660028111156105a7576105a66114e4565b5b146105e7576040517f08c379a00000000000000000000000000000000000000000000000000000000081526004016105de906118f9565b60405180910390fd5b60028160040160146101000a81548160ff0219169083600281111561060f5761060e6114e4565b5b02179055503373ffffffffffffffffffffffffffffffffffffffff16827f6e180641b9a6f4775aee6d555e9c483348ffcf34b9eb1493c00415462cd188a560405160405180910390a35050565b6003818051602081018201805184825260208301602085012081835280955050505050506000915054906101000a900460ff1681565b60608060608060008060015487106106df576040517f08c379a00000000000000000000000000000000000000000000000000000000081526004016106d69061188d565b60405180910390fd5b6000600260008981526020019081526020016000206040518060c001604052908160008201805461070f906119b4565b80601f016020809104026020016040519081016040528092919081815260200182805461073b906119b4565b80156107885780601f1061075d57610100808354040283529160200191610788565b820191906000526020600020905b81548152906001019060200180831161076b57829003601f168201915b505050505081526020016001820180546107a1906119b4565b80601f01602080910402602001604051908101604052809291908181526020018280546107cd906119b4565b801561081a5780601f106107ef5761010080835404028352916020019161081a565b820191906000526020600020905b8154815290600101906020018083116107fd57829003601f168201915b50505050508152602001600282018054610833906119b4565b80601f016020809104026020016040519081016040528092919081815260200182805461085f906119b4565b80156108ac5780601f10610881576101008083540402835291602001916108ac565b820191906000526020600020905b81548152906001019060200180831161088f57829003601f168201915b505050505081526020016003820180546108c5906119b4565b80601f01602080910402602001604051908101604052809291908181526020018280546108f1906119b4565b801561093e5780601f106109135761010080835404028352916020019161093e565b820191906000526020600020905b81548152906001019060200180831161092157829003601f168201915b505050505081526020016004820160009054906101000a900473ffffffffffffffffffffffffffffffffffffffff1673ffffffffffffffffffffffffffffffffffffffff1673ffffffffffffffffffffffffffffffffffffffff1681526020016004820160149054906101000a900460ff1660028111156109c2576109c16114e4565b5b60028111156109d4576109d36114e4565b5b815250509050806000015181602001518260400151836060015184608001518560a001519650965096509650965096505091939550919395565b600382604051610a1e9190611a21565b908152602001604051809103902060009054906101000a900460ff16610a79576040517f08c379a0000000000000000000000000000000000000000000000000000000008152600401610a7090611a84565b60405180910390fd5b6040518060c001604052808581526020018481526020018381526020018281526020013373ffffffffffffffffffffffffffffffffffffffff16815260200160006002811115610acc57610acb6114e4565b5b8152506002600060015481526020019081526020016000206000820151816000019081610af99190611c50565b506020820151816001019081610b0f9190611c50565b506040820151816002019081610b259190611c50565b506060820151816003019081610b3b9190611c50565b5060808201518160040160006101000a81548173ffffffffffffffffffffffffffffffffffffffff021916908373ffffffffffffffffffffffffffffffffffffffff16021790555060a08201518160040160146101000a81548160ff02191690836002811115610bae57610bad6114e4565b5b02179055509050503373ffffffffffffffffffffffffffffffffffffffff166001547f1c9dc990d4661f9cbdde74fe2e820d85c8495d6eb0fe23913c2afcf3239ddf3286604051610bff9190611d22565b60405180910390a360016000815480929190610c1a90611d73565b919050555050505050565b60008054906101000a900473ffffffffffffffffffffffffffffffffffffffff1673ffffffffffffffffffffffffffffffffffffffff163373ffffffffffffffffffffffffffffffffffffffff1614610cb3576040517f08c379a0000000000000000000000000000000000000000000000000000000008152600401610caa90611821565b60405180910390fd5b6001600460008373ffffffffffffffffffffffffffffffffffffffff1673ffffffffffffffffffffffffffffffffffffffff16815260200190815260200160002060006101000a81548160ff02191690831515021790555050565b60008054906101000a900473ffffffffffffffffffffffffffffffffffffffff1673ffffffffffffffffffffffffffffffffffffffff163373ffffffffffffffffffffffffffffffffffffffff1614610d9c576040517f08c379a0000000000000000000000000000000000000000000000000000000008152600401610d9390611821565b60405180910390fd5b80600383604051610dad9190611a21565b908152602001604051809103902060006101000a81548160ff0219169083151502179055505050565b6002602052806000526040600020600091509050806000018054610df9906119b4565b80601f0160208091040260200160405190810160405280929190818152602001828054610e25906119b4565b8015610e725780601f10610e4757610100808354040283529160200191610e72565b820191906000526020600020905b815481529060010190602001808311610e5557829003601f168201915b505050505090806001018054610e87906119b4565b80601f0160208091040260200160405190810160405280929190818152602001828054610eb3906119b4565b8015610f005780601f10610ed557610100808354040283529160200191610f00565b820191906000526020600020905b815481529060010190602001808311610ee357829003601f168201915b505050505090806002018054610f15906119b4565b80601f0160208091040260200160405190810160405280929190818152602001828054610f41906119b4565b8015610f8e5780601f10610f6357610100808354040283529160200191610f8e565b820191906000526020600020905b815481529060010190602001808311610f7157829003601f168201915b505050505090806003018054610fa3906119b4565b80601f0160208091040260200160405190810160405280929190818152602001828054610fcf906119b4565b801561101c5780601f10610ff15761010080835404028352916020019161101c565b820191906000526020600020905b815481529060010190602001808311610fff57829003601f168201915b5050505050908060040160009054906101000a900473ffffffffffffffffffffffffffffffffffffffff16908060040160149054906101000a900460ff16905086565b60008054906101000a900473ffffffffffffffffffffffffffffffffffffffff1673ffffffffffffffffffffffffffffffffffffffff163373ffffffffffffffffffffffffffffffffffffffff16146110ed576040517f08c379a00000000000000000000000000000000000000000000000000000000081526004016110e490611821565b60405180910390fd5b6000600460008373ffffffffffffffffffffffffffffffffffffffff1673ffffffffffffffffffffffffffffffffffffffff16815260200190815260200160002060006101000a81548160ff02191690831515021790555050565b60015481565b60046020528060005260406000206000915054906101000a900460ff1681565b60008054906101000a900473ffffffffffffffffffffffffffffffffffffffff1681565b6000600460008373ffffffffffffffffffffffffffffffffffffffff1673ffffffffffffffffffffffffffffffffffffffff16815260200190815260200160002060009054906101000a900460ff169050919050565b6000604051905090565b600080fd5b600080fd5b6000819050919050565b61120f816111fc565b811461121a57600080fd5b50565b60008135905061122c81611206565b92915050565b600060208284031215611248576112476111f2565b5b60006112568482850161121d565b91505092915050565b600080fd5b600080fd5b6000601f19601f8301169050919050565b7f4e487b7100000000000000000000000000000000000000000000000000000000600052604160045260246000fd5b6112b282611269565b810181811067ffffffffffffffff821117156112d1576112d061127a565b5b80604052505050565b60006112e46111e8565b90506112f082826112a9565b919050565b600067ffffffffffffffff8211156113105761130f61127a565b5b61131982611269565b9050602081019050919050565b82818337600083830152505050565b6000611348611343846112f5565b6112da565b90508281526020810184848401111561136457611363611264565b5b61136f848285611326565b509392505050565b600082601f83011261138c5761138b61125f565b5b813561139c848260208601611335565b91505092915050565b6000602082840312156113bb576113ba6111f2565b5b600082013567ffffffffffffffff8111156113d9576113d86111f7565b5b6113e584828501611377565b91505092915050565b60008115159050919050565b611403816113ee565b82525050565b600060208201905061141e60008301846113fa565b92915050565b600081519050919050565b600082825260208201905092915050565b60005b8381101561145e578082015181840152602081019050611443565b60008484015250505050565b600061147582611424565b61147f818561142f565b935061148f818560208601611440565b61149881611269565b840191505092915050565b600073ffffffffffffffffffffffffffffffffffffffff82169050919050565b60006114ce826114a3565b9050919050565b6114de816114c3565b82525050565b7f4e487b7100000000000000000000000000000000000000000000000000000000600052602160045260246000fd5b60038110611524576115236114e4565b5b50565b600081905061153582611513565b919050565b600061154582611527565b9050919050565b6115558161153a565b82525050565b600060c0820190508181036000830152611575818961146a565b90508181036020830152611589818861146a565b9050818103604083015261159d818761146a565b905081810360608301526115b1818661146a565b90506115c060808301856114d5565b6115cd60a083018461154c565b979650505050505050565b600080600080608085870312156115f2576115f16111f2565b5b600085013567ffffffffffffffff8111156116105761160f6111f7565b5b61161c87828801611377565b945050602085013567ffffffffffffffff81111561163d5761163c6111f7565b5b61164987828801611377565b935050604085013567ffffffffffffffff81111561166a576116696111f7565b5b61167687828801611377565b925050606085013567ffffffffffffffff811115611697576116966111f7565b5b6116a387828801611377565b91505092959194509250565b6116b8816114c3565b81146116c357600080fd5b50565b6000813590506116d5816116af565b92915050565b6000602082840312156116f1576116f06111f2565b5b60006116ff848285016116c6565b91505092915050565b611711816113ee565b811461171c57600080fd5b50565b60008135905061172e81611708565b92915050565b6000806040838503121561174b5761174a6111f2565b5b600083013567ffffffffffffffff811115611769576117686111f7565b5b61177585828601611377565b92505060206117868582860161171f565b9150509250929050565b611799816111fc565b82525050565b60006020820190506117b46000830184611790565b92915050565b60006020820190506117cf60008301846114d5565b92915050565b7f4f6e6c792061646d696e00000000000000000000000000000000000000000000600082015250565b600061180b600a8361142f565b9150611816826117d5565b602082019050919050565b6000602082019050818103600083015261183a816117fe565b9050919050565b7f427573696e65737320646f6573206e6f74206578697374000000000000000000600082015250565b600061187760178361142f565b915061188282611841565b602082019050919050565b600060208201905081810360008301526118a68161186a565b9050919050565b7f416c72656164792070726f636573736564000000000000000000000000000000600082015250565b60006118e360118361142f565b91506118ee826118ad565b602082019050919050565b60006020820190508181036000830152611912816118d6565b9050919050565b7f4f6e6c7920726576696577657273000000000000000000000000000000000000600082015250565b600061194f600e8361142f565b915061195a82611919565b602082019050919050565b6000602082019050818103600083015261197e81611942565b9050919050565b7f4e487b7100000000000000000000000000000000000000000000000000000000600052602260045260246000fd5b600060028204905060018216806119cc57607f821691505b6020821081036119df576119de611985565b5b50919050565b600081905092915050565b60006119fb82611424565b611a0581856119e5565b9350611a15818560208601611440565b80840191505092915050565b6000611a2d82846119f0565b915081905092915050565b7f526567696f6e206e6f7420616c6c6f7765640000000000000000000000000000600082015250565b6000611a6e60128361142f565b9150611a7982611a38565b602082019050919050565b60006020820190508181036000830152611a9d81611a61565b9050919050565b60008190508160005260206000209050919050565b60006020601f8301049050919050565b600082821b905092915050565b600060088302611b067fffffffffffffffffffffffffffffffffffffffffffffffffffffffffffffffff82611ac9565b611b108683611ac9565b95508019841693508086168417925050509392505050565b6000819050919050565b6000611b4d611b48611b43846111fc565b611b28565b6111fc565b9050919050565b6000819050919050565b611b6783611b32565b611b7b611b7382611b54565b848454611ad6565b825550505050565b600090565b611b90611b83565b611b9b818484611b5e565b505050565b5b81811015611bbf57611bb4600082611b88565b600181019050611ba1565b5050565b601f821115611c0457611bd581611aa4565b611bde84611ab9565b81016020851015611bed578190505b611c01611bf985611ab9565b830182611ba0565b50505b505050565b600082821c905092915050565b6000611c2760001984600802611c09565b1980831691505092915050565b6000611c408383611c16565b9150826002028217905092915050565b611c5982611424565b67ffffffffffffffff811115611c7257611c7161127a565b5b611c7c82546119b4565b611c87828285611bc3565b600060209050601f831160018114611cba5760008415611ca8578287015190505b611cb28582611c34565b865550611d1a565b601f198416611cc886611aa4565b60005b82811015611cf057848901518255600182019150602085019450602081019050611ccb565b86831015611d0d5784890151611d09601f891682611c16565b8355505b6001600288020188555050505b505050505050565b60006020820190508181036000830152611d3c818461146a565b905092915050565b7f4e487b7100000000000000000000000000000000000000000000000000000000600052601160045260246000fd5b6000611d7e826111fc565b91507fffffffffffffffffffffffffffffffffffffffffffffffffffffffffffffffff8203611db057611daf611d44565b5b60018201905091905056fea2646970667358221220987c3641e0892631005919ae2eaa5a56ac59eb194cd75395d676a8be4ded32b764736f6c634300081c0033",
  "linkReferences": {},
  "deployedLinkReferences": {}
}